:040800000AEF04F007
:10080800FACF01F0FBCF02F00CED04F05EEF04F03C
:100818000600E9CF03F0EACF04F0E1CF05F0E2CF1C
:1008280006F0D9CF07F0DACF08F0F3CF09F0F4CF0C
:100838000AF0F6CF0BF0F7CF0CF0F8CF0DF0F5CFAC
:100848000EF0F0A011D0F090F096897A000E106E9C
:10085800000E0F6E100E0F5C270E1058D8B003D084
:100868000F4A102AF7D7F0860EC0F5FF0DC0F8FF23
:100878000CC0F7FF0BC0F6FF0AC0F4FF09C0F3FF76
:1008880008C0DAFF07C0D9FF06C0E2FF05C0E1FFD4
:1008980004C0EAFF03C0E9FF02C0FBFF01C0FAFF82
:1008A80011000F0EC16E929A9382898AF086F19A8E
:0A08B800F28EFFD7000155EF04F0A7
:020000040020DA
:08000000FFFFFFFFFFFFFFFF00
:020000040030CA
:0E00000000051F1FFF8385FF0FC00FE00F409C
:00000001FF
