:10080000DAEF3EF0003F065B4F666D7D077F6F00BD
:107DB400000EF86E00019EEF3FF00FD0000E046E2F
:107DC400000E036E0450800A7F0FF40ED8B4035CD7
:107DD400D8B003D0034A042AF5D70106D8A0020676
:107DE4000128D8B40228D8B41200E8D7056E000ED2
:107DF400076E05500250800AF36E800EF35C000E8D
:107E0400D8B4015CD8B008D0016C021ED8B0022AE4
:107E1400056E010E076E05500450800AF36E800E45
:107E2400F35C000ED8B4035CD8B004D0036C041E19
:107E3400D8B0042A04500310D8B41AD0056E010E29
:107E4400066E055004D0D89003360436062A04AED4
:107E5400FAD70350015C04500258D8A004D0035050
:107E6400015E0450025AD89004320332062EF1D730
:107E74000750D8B404D0016C021ED8B0022A01C045
:107E840001F002C002F01200056E000E076E0550EC
:107E94000450800AF36E800EF35C000ED8B4035CC9
:107EA400D8B008D0036C041ED8B0042A056E010EA5
:107EB400076E05500250800AF36E800EF35C000ECC
:107EC400D8B4015CD8B006D0016C021ED8B0022A26
:107ED400010E071A000E096E000E086E04500310FE
:107EE400D8B41ED0056E010E066E055004D0D8908D
:107EF40003360436062A04AEFAD7D8900836093673
:107F04000350015C04500258D8A005D00350015E10
:107F14000450025A0880D89004320332062EEDD75A
:107F24000750D8B404D0086C091ED8B0092A08C078
:107F340001F009C002F012000A6E000E0F6E0A5022
:107F4400000E936E000E896E929092920A6E000E4D
:107F54000F6E0A50630E0F6401D0F8D70FC001F002
:107F6400026A000E046E0A0E036E46EC3FF00150E6
:107F74000B6E0FC001F0026A000E046E0A0E036E4F
:107F8400F8EC3EF001500C6E000E0E6E000E0D6EFD
:107F9400640E0D5C000E0E58D8B02BD089808992E7
:107FA4000B50010D050EF324F66E080EF420F76E47
:107FB4000800F550FF0A8A6E000E026E020E016E72
:107FC400DFEC3EF0899089820C50010D050EF324FC
:107FD400F66E080EF420F76E0800F550FF0A8A6E5C
:107FE400000E026E020E016EDFEC3EF00D4A0E2A08
:0C7FF400CFD70F2A630E0F64B1D7A8D7B7
:020000040020DA
:08000000FFFFFFFFFFFFFFFF00
:020000040030CA
:0E00000000051F1FFF8385FF0FC00FE00F409C
:00000001FF
