:04080000BEEF3FF018
:107F7C000001DCEF3FF0000E046E000E036E0FD01C
:107F8C00000E066E000E056E880E055C130E06586C
:107F9C00D8B003D0054A062AF7D7034A042A015061
:107FAC00035C02500458D8B01200EAD7000E946E4D
:107FBC008B68010E8B6E000E026E0A0E016EC1EC08
:107FCC003FF0020E8B6E000E026E0A0E016EC1ECBB
:107FDC003FF0040E8B6E000E026E0A0E016EC1ECA9
:107FEC003FF0200E8B6E000E026E0A0E016EC1EC7D
:047FFC003FF0DFD79C
:020000040020DA
:08000000FFFFFFFFFFFFFFFF00
:020000040030CA
:0E00000000051F1FFF8385FF0FC00FE00F409C
:00000001FF
