:1008000031EF3FF0000D0A48656C6C6F204D696355
:10081000726F5049432D3138463A20456E746572E7
:1008200020616E79204B65792066726F6D204B6573
:1008300079626F6172640D0A002563212000000057
:107E5A009EAAFED7AE501200000EF86E000143EF44
:107E6A003FF0E8CF02F002503CEC3FF01200E8CFBE
:107E7A0001F0ACA2FED701C0ADFF1200250E106EB4
:107E8A00800E0F6E5DEC3FF0080E046E050E036E59
:107E9A0080EC3FF0080E046E390E036E2DEC3FF0B5
:107EAA00156E1550056E066A80EC3FF0F3D7FFD7C2
:107EBA00949C948EB00E016E710E026E0B0E036EC0
:107ECA00000E046E0FC005F010C006F0076A086ABB
:107EDA00BDEC3FF001C011F002C012F003C013F074
:107EEA0004C014F01104AF6E000EB86E200EAC6E12
:107EFA00900EAB6E1200000E0A6E050E096E2CD0A3
:107F0A000B50250AD8B404D00B5036EC3FF024D0DD
:107F1A00076E000E086E07500ED009C0D9FF0AC0BE
:107F2A00DAFFDF500B6E020E0926000E0A220B50F2
:107F3A0036EC3FF011D003C0F6FF04C0F7FF034A46
:107F4A00042A0800F5CF0BF00B50000AD8B40FD062
:107F5A00630AD8B4E2D7EBD703C0F6FF04C0F7FF31
:107F6A00034A042A0800F5CF0BF00B66C9D71200A2
:107F7A00000E0A6E000E0B6E000E0C6E000E0D6ED9
:107F8A000850051006100710D8B42CD0096E010E3F
:107F9A000E6E095006D0D8900536063607360836D2
:107FAA000E2A08AEF8D7D8900A360B360C360D369C
:107FBA000550015C065002580750035808500458EF
:107FCA00D8A009D00550015E0650025A0750035A3C
:107FDA000850045A0A80D89008320732063205320D
:107FEA000E2EE1D70AC001F00BC002F00CC003F05C
:067FFA000DC004F01200AE
:020000040020DA
:08000000FFFFFFFFFFFFFFFF00
:020000040030CA
:0E00000000051F1FFF8385FF0FC00FE00F409C
:00000001FF
