:100800007FEF3CF00001000A006400E803102701BC
:1008100000100000010010726561645F6461746122
:100820002564203D30782530325800777269746530
:100830005F6461746125643D307825303258003042
:100840003132333435363738394142434445460036
:1008500020202053504920454550524F4D00000064
:10782C00035049F6AC9BDE7A6C12000EC96E9EA614
:10783C00FED7C9CF01F09E9601501200E8CF01F09F
:10784C009E9601C0C9FF9EA6FED79E96C9CF01F099
:10785C0012000F0EC16E93809392949E929A969200
:10786C00898A8D82C69AC79EC78CC698C690C682D6
:10787C00C694C696C68A1200E8CF07F0899007C056
:10788C008AFF8982000E026E0A0E016EAAEC3CF091
:10789C008992000E026E0A0E016EAAEC3CF01200E8
:1078AC00E8CF07F0898007C08AFF8982000E026E3C
:1078BC000A0E016EAAEC3CF08992000E026E0A0EC2
:1078CC00016EAAEC3CF01200E8CF03F0016E000E42
:1078DC00026E01503A0E035CD8B007D02F0E036431
:1078EC0004D0016E010E026E015002C001F0013095
:1078FC0012002C0EF66E780EF76E000EF86E00EE7F
:10790C0054F010EE0AF00900F5CFEEFFE550E1500F
:10791C00FAE1000EF86E000130EF3DF00F0EC16E73
:10792C00000E936E92909292380E42EC3CF0060E42
:10793C0042EC3CF00C0E42EC3CF0010E42EC3CF004
:10794C00800E42EC3CF01200000E046E000E036E32
:10795C000FD0000E066E000E056E640E055C000E58
:10796C000658D8B003D0054A062AF7D7034A042A8A
:10797C000150035C02500458D8B01200EAD70150F1
:10798C000302F3CF05F0F4CF06F001500402F3CF5D
:10799C00F4FFF36AF3500526F4500622025003025A
:1079AC00F3CFF4FFF36AF3500526F450062205C01A
:1079BC0001F006C002F012000C500B10D8B41AD013
:1079CC000D6E010E0E6E0D5004D0D8900B360C3689
:1079DC000E2A0CAEFAD70B50095C0C500A58D8A0E2
:1079EC0004D00B50095E0C500A5AD8900C320B3252
:1079FC000E2EF1D709C009F00AC00AF01200000ED1
:107A0C00076E000E066E04500310D8B41ED0056E1F
:107A1C00010E086E055004D0D89003360436082A9F
:107A2C0004AEFAD7D890063607360350015C0450E2
:107A3C000258D8A005D00350015E0450025A0680AB
:107A4C00D89004320332082EEDD706C001F007C0DF
:107A5C0002F01200080E4E6E500E4D6E20EE54F0D9
:107A6C0010EE29F00A0EDECFE6FFE82EFCD7286ECA
:107A7C00300E4F6E285094EC3CF00AD04DC0F6FFFF
:107A8C004EC0F7FF0800F55056EC3CF04D4A4E2A1C
:107A9C004DC0F6FF4EC0F7FF0800F5500009D8A402
:107AAC00EDD74E0E026E200E016EAAEC3CF02FECC0
:107ABC003CF0899A060E24EC3CF0898A000E026E8A
:107ACC00640E016EAAEC3CF0899A020E24EC3CF098
:107ADC00000E24EC3CF04F5024EC3CF0000E536EA6
:107AEC00000E526E5350800A800F0A0ED8B4525CAE
:107AFC00D8B00CD0290E5224D96E000E5320DA6E59
:107B0C00DF5024EC3CF0524A532AECD7898A000E01
:107B1C00026E640E016EAAEC3CF0899A030E24EC02
:107B2C003CF0000E24EC3CF04F5024EC3CF0000EEA
:107B3C00536E000E526E5350800A800F0A0ED8B44A
:107B4C00525CD8B00CD0330E5224D96E000E532098
:107B5C00DA6E1BEC3CF0DF6E524A532AECD7898A62
:107B6C00000E026E640E016EAAEC3CF0899AC69A65
:107B7C0094EC3CF0000E536E000E526E5350800A83
:107B8C00800F0A0ED8B4525CD8B071D0800E42EC83
:107B9C003CF0000E106E3D0E0F6E080E126E2B0E8A
:107BAC00116E52C013F053C014F0290E5224D96E2A
:107BBC00000E5320DA6EDF50286E2850156E166AB0
:107BCC003EEC3EF0000E516E000E506E5150800A8D
:107BDC00800F100ED8B4505CD8B00CD03D0E502491
:107BEC00D96E000E5120DA6EDF5056EC3CF0504A44
:107BFC00512AECD7C00E42EC3CF0000E106E3D0E3C
:107C0C000F6E080E126E170E116E52C013F053C089
:107C1C0014F0330E5224D96E000E5320DA6EDF505E
:107C2C00286E2850156E166A3EEC3EF0000E516E12
:107C3C00000E506E5150800A800F100ED8B4505C5C
:107C4C00D8B00CD03D0E5024D96E000E5120DA6EF7
:107C5C00DF5056EC3CF0504A512AECD74E0E026ED7
:107C6C00200E016EAAEC3CF0524A532A87D7FFD75C
:107C7C00000E1D6E130E1C6EABD12750250AD8B406
:107C8C0009D00FC0D9FF10C0DAFF27C0DFFF0F4AA1
:107C9C00102A9ED1000E266E000E256E176E000E59
:107CAC00246E175003D02484114A122A11C0F6FFF7
:107CBC0012C0F7FF0800F550300AD8B4F4D711C041
:107CCC00F6FF12C0F7FF0800F5506AEC3CF0D8A0A4
:107CDC0035D0000E266E000E256E25C001F026C094
:107CEC0002F0000E046E0A0E036EC5EC3CF001C0EF
:107CFC0025F002C026F0D00E176EFF0E186E11C0C4
:107D0C00F6FF12C0F7FF0800F550196E1A6A1750EB
:107D1C00192618501A22195025261A502622114AB3
:107D2C00122A11C0F6FF12C0F7FF0800F5506AECDA
:107D3C003CF0D8A003D0D1D7248E1AD011C0F6FFB6
:107D4C0012C0F7FF114A122A0800F5CF27F027506E
:107D5C00000AD8B448D1580AD8B4EED73C0AD8B4E3
:107D6C0007D00D0AD8B404D0110AD8B4E5D730D155
:107D7C0024BE1DD01CC0D9FF1DC0DAFFDECF1FF002
:107D8C00DDCF20F0020E1C26000E1D222050800A92
:107D9C00F36E800EF35C000ED8B41F5CD8B050D0DC
:107DAC00030E24121F6C201ED8B0202A49D01CC0F0
:107DBC00D9FF1DC0DAFFDECF1FF0DDCF20F0020EA1
:107DCC001C26000E1D223CD0176E010E276E17507C
:107DDC002750050AD8B43CD02750020D050EF324C9
:107DEC00F66E080EF420F76E0900F5CF17F00900B7
:107DFC00F5CF18F017501F5C18502058D8A028D079
:107E0C00272AE6D7176E010E276E17502750040A43
:107E1C00D8B41ED02750020D0F0EF324F66E080EA8
:107E2C00F420F76E0900F5CF17F00900F5CF18F024
:107E3C0017501F5C18502058D8A00AD0272AE6D714
:107E4C002450800B000AD8B4BFD7800AD8B4DAD734
:107E5C0026502510D8B409D024C017F0030E1716DD
:107E6C00D8B403D02506D8A02606800E27BE7F0ED8
:107E7C00176E2550275C2650800A1758D8B007D0AB
:107E8C002750255E000E27BEFF0E265A04D0000E8A
:107E9C00266E000E256E24A41ED024C017F0030EEF
:107EAC001716D8B408D00FC0D9FF10C0DAFF2D0EAA
:107EBC00DF6E0F4A102A26502510D8B42DD00FC0D3
:107ECC00D9FF10C0DAFF300EDF6E0F4A102A2506DC
:107EDC00D8A02606F0D726502510D8B40FD00FC046
:107EEC00D9FF10C0DAFF200EDF6E0F4A102A2506CC
:107EFC00D8A0260626502510D8A4F1D724C017F0F8
:107F0C00030E1716D8B408D00FC0D9FF10C0DAFF73
:107F1C002D0EDF6E0F4A102A27C01EF055D01E50B2
:107F2C00020D050EF324F66E080EF420F76E090010
:107F3C00F5CF03F00A00F5CF04F01FC001F020C00C
:107F4C0002F005EC3DF001C009F002C00AF0000E91
:107F5C000C6E0A0E0B6EE2EC3CF00950300F276EE3
:107F6C002BD01FC001F020C002F01E50020D0F0ECE
:107F7C00F324F66E080EF420F76E0900F5CF03F02B
:107F8C000A00F5CF04F005EC3DF001500F0B1B6E11
:107F9C001B50010D3F0EF324F66E080EF420F76E05
:107FAC000800F5CF27F008D02450800B000AD8B475
:107FBC00B6D7800AD8B4D5D70FC0D9FF10C0DAFF16
:107FCC0027C0DFFF0F4A102A1E061E28D8A4ECD7A4
:107FDC0011C0F6FF12C0F7FF114A122A0800F5CFA4
:107FEC0027F027664AD60FC0D9FF10C0DAFF000E63
:047FFC00DF6E120022
:020000040020DA
:08000000FFFFFFFFFFFFFFFF00
:020000040030CA
:0E00000000051F1FFF8385FF0FC00FE00F409C
:00000001FF
