:040800000AEF04F007
:10080800FACF01F0FBCF02F05CED04F0E2EF04F068
:1008180000504F57455220444F574E206D6F646526
:10082800000020EE2EF010EE1EF00C0EDECFE6FFDC
:10083800E82EFCD7F9EC04F041EC05F0010E23ECAE
:1008480005F0000E2B6E000E2A6E2B50800A800FCA
:10085800C80ED8B42A5CD8B024D0800E23EC05F09A
:10086800000E2D6E000E2C6E2D50800A800F0C0E7F
:10087800D8B42C5CD8B00CD01E0E2C24D96E000E27
:100888002D20DA6EDF500FEC05F02C4A2D2AECD71C
:10089800000E106E140E0F6EC7EC04F02A4A2B2AB5
:1008A800D4D7000E176E000E166E94EC04F0C4D761
:1008B8000600E9CF03F0EACF04F0E1CF05F0E2CF7C
:1008C80006F0D9CF07F0DACF08F0F3CF09F0F4CF6C
:1008D8000AF0F6CF0BF0F7CF0CF0F8CF0DF0F5CF0C
:1008E8000EF0F0B0F0900EC0F5FF0DC0F8FF0CC090
:1008F800F7FF0BC0F6FF0AC0F4FF09C0F3FF08C0FA
:10090800DAFF07C0D9FF06C0E2FF05C0E1FF04C057
:10091800EAFF03C0E9FF02C0FBFF01C0FAFF1100B4
:10092800080E1B6E190E1A6E010E23EC05F0800ED0
:1009380023EC05F0000E1D6E000E1C6E1D50800A83
:10094800800F0F0ED8B41C5CD8B013D01AC018F0A2
:100958001BC019F01C5018261D50192218C0F6FF8C
:1009680019C0F7FF0800F5500FEC05F01C4A1D2AC6
:10097800E5D716A001D0D38E16B001D0D39E3DEC9A
:1009880005F003001200000E126E000E116E0FD05B
:10099800000E146E000E136EC80E135C000E145871
:1009A800D8B003D0134A142AF7D7114A122A0F5085
:1009B800115C10501258D8B01200EAD76E0EF66EBD
:1009C8000A0EF76E000EF86E00EE2EF010EE0CF028
:1009D8000900F5CFEEFFE550E150FAE1000EF86EA0
:1009E800080EF76E000115EF04F00F0EC16E000E31
:1009F800936E92909292380E23EC05F0060E23EC3B
:100A080005F00C0E23EC05F0010E23EC05F0800E2A
:100A180023EC05F01200E8CF15F0898015C08AFF95
:100A28008982000E106E0A0E0F6EC7EC04F08992D0
:100A3800000E106E0A0E0F6EC7EC04F01200E8CF1D
:100A480015F0899015C08AFF8982000E106E0A0E73
:100A58000F6EC7EC04F08992000E106E0A0E0F6E2E
:100A6800C7EC04F0120052554E206D6F64652E2EAF
:100A78002E2EF28EF08693821200F29EF0969392BA
:020A880012005A
:020000040020DA
:08000000FFFFFFFFFFFFFFFF00
:020000040030CA
:0E00000000051F1FFF8385FF0FC00FE00F409C
:00000001FF
