:040800005BEF04F0B6
:10081800D8CF01F0E8CF02F0E0CF03F0FACF04F030
:10082800FBCF05F0E9CF06F0EACF07F0E1CF08F0FB
:10083800E2CF09F0D9CF0AF0DACF0BF0F3CF0CF002
:10084800F4CF0DF0F6CF0EF0F7CF0FF0F8CF10F091
:10085800F5CF11F0F2A408D0D59EF294ED0ED76E24
:10086800B00ED66E8A1ED58E11C0F5FF10C0F8FFE7
:100878000FC0F7FF0EC0F6FF0DC0F4FF0CC0F3FF6A
:100888000BC0DAFF0AC0D9FF09C0E2FF08C0E1FFC8
:1008980007C0EAFF06C0E9FF05C0FBFF04C0FAFF76
:1008A80003C0E0FF02C0E8FF01C0D8FF100072EFEC
:1008B80004F0000E936E8A686DEC04F066EC04F0A8
:1008C800D58EFFD7070ED56EED0ED76EB00ED66E4D
:1008D8001200D08EE00EF26EF1941200126A00013E
:0408E8005DEF04F0CC
:020000040020DA
:08000000FFFFFFFFFFFFFFFF00
:020000040030CA
:0E00000000051F1FFF8385FF0FC00FE00F409C
:00000001FF
