:1008000033EF3FF0003134372E323538303336395C
:1008100023414243444B657920507265737365648C
:06082000203D2000000055
:107E6600000EF86E000191EF3FF0E8CF07F0899021
:107E760007C08AFF8982000E026E0A0E016E76EC3A
:107E86003FF08992000E026E0A0E016E76EC3FF00C
:107E96001200E8CF07F0898007C08AFF8982000EAA
:107EA600026E0A0E016E76EC3FF08992000E026EAB
:107EB6000A0E016E76EC3FF012000F0EC16E000E38
:107EC600936E92909292380E38EC3FF0060E38EC94
:107ED6003FF00C0E38EC3FF0010E38EC3FF0800E10
:107EE60038EC3FF01200000E046E000E036E0FD049
:107EF600000E066E000E056E320E055C000E06586C
:107F0600D8B003D0054A062AF7D7034A042A0150F7
:107F1600035C02500458D8B01200EAD7080E0F6E60
:107F2600150E0E6EF00E956E8C6860EC3FF0800EAE
:107F360038EC3FF00AD00EC0F6FF0FC0F7FF08007E
:107F4600F5504CEC3FF00E4A0F2A0EC0F6FF0FC05C
:107F5600F7FF0800F5500009D8A4EDD7C1EC3FF0B3
:107F66000D6EC00E38EC3FF00D504CEC3FF0000E9D
:107F7600026E640E016E76EC3FF0F0D7076E000ECF
:107F86000A6E07508C68076E010E0B6E07500F0EB7
:107F96000B6401D0F7D70B50FF0A8C6E000E026EF1
:107FA600020E016E76EC3FF083380F0B086E076EFB
:107FB600010E0C6E075016D008500C140009D8A4F8
:107FC6000DD00A50010D050EF324F66E080EF420AE
:107FD600F76E0800F5CF09F009500ED00A2A0C50AA
:107FE6000C240C6E0F0E0C64E7D70B500B240B6E93
:0A7FF6000F0E0B64D0D7C6D712009F
:020000040020DA
:08000000FFFFFFFFFFFFFFFF00
:020000040030CA
:0E00000000051F1FFF8385FF0FC00FE00F409C
:00000001FF
