:100800003DEF3DF000010010000001001074696D23
:10081000653A253032783A253032783A25303278C8
:1008200000646174653A253032783A253032783A7E
:10083000253032780030313233343536373839614B
:080840006263646566000000BC
:107A3E009E96C5829EB61200FDD79E96C5809EB6B6
:107A4E001200FDD79E96C5849EB61200FDD79E9657
:107A5E0001C0C9FF9EB61200FDD793809382770EA8
:107A6E00C86E080EC66EC78EC68A120000EE2CF0C7
:107A7E00100EEE6AE806FDE1000EF86E000140EF12
:107A8E003EF09E96C5869EA6FED7C9CF01F09E9665
:107A9E00C5889EA6FED701501200E8CF07F0899048
:107AAE0007C08AFF8982000E026E0A0E016EBEECBE
:107ABE003DF08992000E026E0A0E016EBEEC3DF094
:107ACE001200E8CF07F0898007C08AFF8982000E76
:107ADE00026E0A0E016EBEEC3DF08992000E026E31
:107AEE000A0E016EBEEC3DF01200E8CF03F0016EFF
:107AFE00000E026E01503A0E035CD8B007D02F0E66
:107B0E00036404D0016E010E026E015002C001F03A
:107B1E00013012000F0EC16E000E936E9290929273
:107B2E00380E54EC3DF0060E54EC3DF00C0E54ECB9
:107B3E003DF0010E54EC3DF0800E54EC3DF0120081
:107B4E00E8CF04F024EC3DF0000E026ED00E016E74
:107B5E002EEC3DF004C001F0026A2EEC3DF003C0A5
:107B6E0001F0026A2EEC3DF029EC3DF01200000E01
:107B7E00046E000E036E0FD0000E066E000E056E24
:107B8E00640E055C000E0658D8B003D0054A062ACE
:107B9E00F7D7034A042A0150035C02500458D8B0A8
:107BAE001200EAD701500302F3CF05F0F4CF06F02E
:107BBE0001500402F3CFF4FFF36AF3500526F4509C
:107BCE00062202500302F3CFF4FFF36AF3500526A8
:107BDE00F450062205C001F006C002F01200E8CFF4
:107BEE0003F024EC3DF0000E026ED00E016E2EEC72
:107BFE003DF003C001F0026A2EEC3DF01FEC3DF0AB
:107C0E00000E026ED10E016E2EEC3DF0C58A48ECD0
:107C1E003DF0046E29EC3DF004501200000E076E8C
:107C2E00000E066E04500310D8B41ED0056E010E61
:107C3E00086E055004D0D89003360436082A04AED8
:107C4E00FAD7D890063607360350015C0450025816
:107C5E00D8A005D00350015E0450025A0680D89079
:107C6E0004320332082EEDD706C001F007C002F031
:107C7E00120034EC3DF0246E450E036E2450000EBF
:107C8E00A7EC3DF0246E570E036E2450010EA7ECA8
:107C9E003DF0246E660E036E2450020EA7EC3DF0EE
:107CAE00246E010E036E2450040EA7EC3DF0246EDC
:107CBE00080E036E2450050EA7EC3DF0246E140E34
:107CCE00036E2450060EA7EC3DF034EC3DF0000E92
:107CDE00F6EC3DF0286E010EF6EC3DF0296E020E2C
:107CEE00F6EC3DF01F0B2A6E040EF6EC3DF0256E01
:107CFE00050EF6EC3DF0266E060EF6EC3DF0276E08
:107D0E00C69A91EC3DF0000E0A6E2C0E096E080E0E
:107D1E000C6E210E0B6E25C00DF00E6A26C00FF0F4
:107D2E00106A27C011F0126AE5EC3EF0800E54EC9A
:107D3E003DF0246E000E2B6E24500CD02B50010DF6
:107D4E002C0EF324D96E000EF420DA6EDF5068ECA0
:107D5E003DF02B2A0C0E2B64F1D7000E0A6E2C0E62
:107D6E00096E080E0C6E0D0E0B6E2AC00DF00E6A0B
:107D7E0029C00FF0106A28C011F0126AE5EC3EF02F
:107D8E00C00E54EC3DF0246E000E2B6E24500CD021
:107D9E002B50010D2C0EF324D96E000EF420DA6E4A
:107DAE00DF5068EC3DF02B2A0C0E2B64F1D7270E1A
:107DBE00026E100E016EBEEC3DF087D7000E186EEF
:107DCE000D0E176E04D12350250AD8B409D009C060
:107DDE00D9FF0AC0DAFF23C0DFFF094A0A2AF7D00B
:107DEE00000E226E000E216E136E000E1A6E1350D0
:107DFE0003D01A840B4A0C2A0BC0F6FF0CC0F7FFF7
:107E0E000800F550300AD8B4F4D70BC0F6FF0CC0FA
:107E1E00F7FF0800F5507CEC3DF0D8A032D0000EF4
:107E2E00226E000E216E21C001F022C002F0000E63
:107E3E00046E0A0E036ED9EC3DF001C021F002C0B3
:107E4E0022F0D00E136EFF0E146E0BC0F6FF0CC098
:107E5E00F7FF0800F550156E166A135015261450CC
:107E6E00162215502126165022220B4A0C2A0BC020
:107E7E00F6FF0CC0F7FF0800F5507CEC3DF0D8B0D3
:107E8E00D2D70BC0F6FF0CC0F7FF0B4A0C2A080026
:107E9E00F5CF23F02350000AD8B4A4D0780AD8A482
:107EAE0096D017C0D9FF18C0DAFFDECF1BF0DDCF9A
:107EBE001CF0020E1726000E1822136E010E236EF2
:107ECE0013502350040AD8B416D02350020D050EB9
:107EDE00F324F66E080EF420F76E0900F5CF13F0BA
:107EEE000900F5CF14F013501B5C14501C58D8A089
:107EFE0002D0232AE6D7800E23BE7F0E136E2150AA
:107F0E00235C2250800A1358D8B007D02350215E2C
:107F1E00000E23BEFF0E225A04D0000E226E000E5B
:107F2E00216E1AA410D022502110D8B41FD009C02F
:107F3E00D9FF0AC0DAFF300EDF6E094A0A2A21067F
:107F4E00D8A02206F0D722502110D8B40FD009C0E5
:107F5E00D9FF0AC0DAFF200EDF6E094A0A2A21066F
:107F6E00D8A0220622502110D8A4F1D723C020F089
:107F7E002AD01BC001F01CC002F02050020D050ECD
:107F8E00F324F66E080EF420F76E0900F5CF03F019
:107F9E000A00F5CF04F015EC3EF001500F0B196EF0
:107FAE001950010D350EF324F66E080EF420F76EFF
:107FBE000800F5CF23F009C0D9FF0AC0DAFF23C0AD
:107FCE00DFFF094A0A2A20062028D8A4D2D70BC0E0
:107FDE00F6FF0CC0F7FF0B4A0C2A0800F5CF23F072
:107FEE002366F1D609C0D9FF0AC0DAFF000EDF6E94
:027FFE0012006F
:020000040020DA
:08000000FFFFFFFFFFFFFFFF00
:020000040030CA
:0E00000000051F1FFF8385FF0FC00FE00F409C
:00000001FF
