:04080000B2EF3FF024
:107F64000001D0EF3FF0000E046E000E036E0FD040
:107F7400000E066E000E056E640E055C000E0658BB
:107F8400D8B003D0054A062AF7D7034A042A015079
:107F9400035C02500458D8B01200EAD7000E936E66
:107FA4008A68000E096E000E086EFF0E085C000E53
:107FB4000958D8B00BD008C08AFF000E026E050E17
:107FC400016EB5EC3FF0084A092AEFD7000E096E9E
:107FD400000E086EFF0E085C000E0958D8B0E1D7F9
:107FE40008500008076E07048A6E000E026E050E24
:0C7FF400016EB5EC3FF0084A092AECD7FA
:020000040020DA
:08000000FFFFFFFFFFFFFFFF00
:020000040030CA
:0E00000000051F1FFF8385FF0FC00FE00F409C
:00000001FF
