:1008000077EF3DF00001000A006400E80310274183
:1008100044432076616C75653D2534646D76000037
:107AEE00000EF86E0001E5EF3DF096829684070ECB
:107AFE00C16EAE0EC06E1200E8CF03F00344E8462E
:107B0E00FC0B0109C26EC282C2B2FED7C3CF01F016
:107B1E00C4CF02F01200E8CF07F0898007C08AFFB9
:107B2E008982000E026E0A0E016EFFEC3DF0899204
:107B3E00000E026E0A0E016EFFEC3DF01200E8CF51
:107B4E0007F0899007C08AFF8982000E026E0A0E26
:107B5E00016EFFEC3DF08992000E026E0A0E016E70
:107B6E00FFEC3DF01200E8CF03F0016E000E026E46
:107B7E0001503A0E035CD8B007D02F0E036404D028
:107B8E00016E010E026E015002C001F001301200B2
:107B9E000F0EC16E000E936E92909292380EA6EC5E
:107BAE003DF0060EA6EC3DF00C0EA6EC3DF0010EDF
:107BBE00A6EC3DF0800EA6EC3DF01200000E936E8A
:107BCE007CEC3DF0CFEC3DF0070E83EC3DF001C0B8
:107BDE003BF002C03CF03BC025F03CC026F085ECEB
:107BEE003EF0030E026EE80E016EFFEC3DF0ECD798
:107BFE00000E046E000E036E0FD0000E066E000E09
:107C0E00056E320E055C000E0658D8B003D0054A3C
:107C1E00062AF7D7034A042A0150035C025004587F
:107C2E00D8B01200EAD701500302F3CF05F0F4CF1B
:107C3E0006F001500402F3CFF4FFF36AF350052669
:107C4E00F450062202500302F3CFF4FFF36AF3500E
:107C5E000526F450062205C001F006C002F01200FF
:107C6E000C500B10D8B41AD00D6E010E0E6E0D50B6
:107C7E0004D0D8900B360C360E2A0CAEFAD70B5019
:107C8E00095C0C500A58D8A004D00B50095E0C5059
:107C9E000A5AD8900C320B320E2EF1D709C009F0C9
:107CAE000AC00AF01200000E076E000E066E045097
:107CBE000310D8B41ED0056E010E086E055004D008
:107CCE00D89003360436082A04AEFAD7D890063672
:107CDE0007360350015C04500258D8A005D003505B
:107CEE00015E0450025A0680D89004320332082EE8
:107CFE00EDD706C001F007C002F0120025C038F023
:107D0E0026C039F0800EA6EC3DF0276E000E3A6EBE
:107D1E0027500FD039A204D0310E92EC3DF003D093
:107D2E00300E92EC3DF0D8903834386E3934396ECE
:107D3E003A2A090E3A64EED725C001F026C002F0A9
:107D4E00000E046E050E036E1AEC3EF001C025F017
:107D5E0002C026F0000E106E280E0F6E080E126E68
:107D6E000F0E116E25C013F026C014F0D7EC3EF0A6
:107D7E00C00EA6EC3DF0276E000E3A6E27500CD0CA
:107D8E003A50010D280EF324D96E000EF420DA6E4F
:107D9E00DF5092EC3DF03A2A0F0E3A64F1D7120002
:107DAE00000E1A6E130E196E12D12450250AD8B475
:107DBE0009D00FC0D9FF10C0DAFF24C0DFFF0F4A71
:107DCE00102A05D1000E236E000E226E156E000EC7
:107DDE001C6E155011C0F6FF12C0F7FF0800F550CB
:107DEE00BAEC3DF0D8A032D0000E236E000E226EFB
:107DFE0022C001F023C002F0000E046E0A0E036EC4
:107E0E001AEC3EF001C022F002C023F0D00E156E27
:107E1E00FF0E166E11C0F6FF12C0F7FF0800F550E8
:107E2E00176E186A1550172616501822175022264C
:107E3E0018502322114A122A11C0F6FF12C0F7FF62
:107E4E000800F550BAEC3DF0D8B0D2D711C0F6FF0D
:107E5E0012C0F7FF114A122A0800F5CF24F0245061
:107E6E00000AD8B4BFD0640AD8B403D00D0AD8A47F
:107E7E00AED019C0D9FF1AC0DAFFDECF1DF0DDCFAC
:107E8E001EF0020E1926000E1A221E50800AF36EE4
:107E9E00800EF35C000ED8B41D5CD8B006D0030E75
:107EAE001C121D6C1E1ED8B01E2A156E010E246EDD
:107EBE0015502450050AD8B416D02450020D050EC4
:107ECE00F324F66E080EF420F76E0900F5CF15F0C8
:107EDE000900F5CF16F015501D5C16501E58D8A08F
:107EEE0002D0242AE6D723502210D8B409D01CC0C1
:107EFE0015F0030E1516D8B403D02206D8A023060B
:107F0E00800E24BE7F0E156E2250245C2350800AF4
:107F1E001558D8B007D02450225E000E24BEFF0E96
:107F2E00235A04D0000E236E000E226E2350221010
:107F3E00D8B40FD00FC0D9FF10C0DAFF200EDF6EFD
:107F4E000F4A102A2206D8A0230623502210D8A4A6
:107F5E00F1D71CC015F0030E1516D8B408D00FC0FB
:107F6E00D9FF10C0DAFF2D0EDF6E0F4A102A24C083
:107F7E001BF029D01B50020D050EF324F66E080ED1
:107F8E00F420F76E0900F5CF03F00A00F5CF04F0E8
:107F9E001DC001F01EC002F05AEC3EF001C009F007
:107FAE0002C00AF0000E0C6E0A0E0B6E37EC3EF09D
:107FBE000950300F246E0FC0D9FF10C0DAFF24C055
:107FCE00DFFF0F4A102A1B061B28D8A4D3D711C0D7
:107FDE00F6FF12C0F7FF114A122A0800F5CF24F05F
:107FEE002466E3D60FC0D9FF10C0DAFF000EDF6E95
:027FFE0012006F
:020000040020DA
:08000000FFFFFFFFFFFFFFFF00
:020000040030CA
:0E00000000051F1FFF8385FF0FC00FE00F409C
:00000001FF
