:0408000094EF3FF042
:107F28000001A5EF3FF0000E026E000E016E300E4C
:107F3800015C750E0258D8B003D0014A022AF7D75F
:107F48001200036E000E056E0350000E936E000EB5
:107F58008A6E0F0EC16E92849286929A929880B41D
:107F680004D0036E000E056E035080B604D0036E75
:107F7800010E056E035005661DD08988899A036E27
:107F8800000E066E035013D006C003F0010E046EF7
:107F9800032A02D0D8900436032EFCD704508A6EE8
:107FA80097EC3FF0000E8A6E97EC3FF0062A070E1A
:107FB8000664EAD70504D8A4D2D78998898A036EBB
:107FC800070E066E0350066601D0C9D706C003F037
:107FD800010E046E032A02D0D8900436032EFCD773
:107FE80004508A6E97EC3FF0000E8A6E97EC3FF0D3
:087FF80006060666EBD7B3D7BD
:020000040020DA
:08000000FFFFFFFFFFFFFFFF00
:020000040030CA
:0E00000000051F1FFF8385FF0FC00FE00F409C
:00000001FF
