:10080000E5EF3DF00001000A006400E80310275402
:10081000656D70657261747572653A002564274371
:040820002020000094
:107BBC0096829684070EC16EAE0EC06E120000EE59
:107BCC0029F0100EEE6AE806FDE1000EF86E0001D9
:107BDC00F9EF3EF0E8CF03F00344E846FC0B010953
:107BEC00C26EC282C2B2FED7C3CF01F0C4CF02F0C4
:107BFC001200E8CF07F0899007C08AFF8982000E37
:107C0C00026E0A0E016E3DEC3EF08992000E026E81
:107C1C000A0E016E3DEC3EF01200E8CF07F08980B1
:107C2C0007C08AFF8982000E026E0A0E016E3DECBF
:107C3C003EF08992000E026E0A0E016E3DEC3EF093
:107C4C0012000F0EC16E000E936E92909292380E2F
:107C5C00FFEC3DF0060EFFEC3DF00C0EFFEC3DF0A2
:107C6C00010EFFEC3DF0800EFFEC3DF01200000E1B
:107C7C00046E000E036E0FD0000E066E000E056E25
:107C8C00640E055C000E0658D8B003D0054A062ACF
:107C9C00F7D7034A042A0150035C02500458D8B0A9
:107CAC001200EAD701500302F3CF05F0F4CF06F02F
:107CBC0001500402F3CFF4FFF36AF3500526F4509D
:107CCC00062202500302F3CFF4FFF36AF3500526A9
:107CDC00F450062205C001F006C002F0120012504A
:107CEC001110D8B41AD0136E010E146E135004D0A8
:107CFC00D89011361236142A12AEFAD711500F5CE6
:107D0C0012501058D8A004D011500F5E1250105AB7
:107D1C00D89012321132142EF1D70FC00FF010C0C0
:107D2C0010F01200000E0D6E000E0C6E0A500910B1
:107D3C00D8B41ED00B6E010E0E6E0B5004D0D89022
:107D4C0009360A360E2A0AAEFAD7D8900C360D36FA
:107D5C000950075C0A500858D8A005D00950075E96
:107D6C000A50085A0C80D8900A3209320E2EEDD7E0
:107D7C000CC007F00DC008F0120008040910D8A4BC
:107D8C0005D00A048009FFEC3DF019D00A04C009A3
:107D9C00FFEC3DF014D00CC0F6FF0DC0F7FFF86AF5
:107DAC00070EF76403D00800F55005D0F6CFE9FFB5
:107DBC00F7CFEAFFEF5013EC3EF00C4A0D2A0CC043
:107DCC00F6FF0DC0F7FFF86A070EF76403D0080042
:107DDC00F55005D0F6CFE9FFF7CFEAFFEF500009D9
:107DEC00D8B41200D8D727EC3EF0DEEC3DF0000EF4
:107DFC00096E010E086E000E0B6E010E0A6E080E57
:107E0C000D6E0F0E0C6EC3EC3EF0070EF0EC3DF059
:107E1C0001C027F002C028F0010E046EF40E036EB0
:107E2C0027C001F028C002F058EC3EF001C007F06A
:107E3C0002C008F0030E0A6EFF0E096E98EC3EF0BD
:107E4C0007C027F008C028F0000E166E290E156E1C
:107E5C00080E186E1C0E176E27C019F028C01AF0E9
:107E6C004DEC3FF0000E096E020E086E000E0B6E0C
:107E7C00010E0A6E000E0D6E290E0C6EC3EC3EF058
:107E8C00130E026E880E016E3DEC3EF0BED7000E56
:107E9C001E6E190E1D6E9CD02650250AD8B409D022
:107EAC0015C0D9FF16C0DAFF26C0DFFF154A162A07
:107EBC008FD01B6E000E1F6E1B5017C0F6FF18C024
:107ECC00F7FF174A182A0800F5CF26F02650000AAB
:107EDC00D8B489D0640AD8B403D00D0AD8A478D009
:107EEC001DC0D9FF1EC0DAFFDECF21F0DDCF22F09E
:107EFC00020E1D26000E1E222250800AF36E800EEA
:107F0C00F35C000ED8B4215CD8B006D0030E1F125F
:107F1C00216C221ED8B0222A1B6E010E266E1B501D
:107F2C002650050AD8B416D02650020D050EF3249F
:107F3C00F66E080EF420F76E0900F5CF1BF0090061
:107F4C00F5CF1CF01B50215C1C502258D8A002D03D
:107F5C00262AE6D71FC01BF0030E1B16D8B408D078
:107F6C0015C0D9FF16C0DAFF2D0EDF6E154A162A82
:107F7C0026C020F029D02050020D050EF324F66EF9
:107F8C00080EF420F76E0900F5CF09F00A00F5CFC2
:107F9C000AF021C007F022C008F098EC3EF007C0B0
:107FAC000FF008C010F0000E126E0A0E116E75EC78
:107FBC003EF00F50300F266E15C0D9FF16C0DAFFF9
:107FCC0026C0DFFF154A162A20062028D8A4D3D7AE
:107FDC0017C0F6FF18C0F7FF174A182A0800F5CF8C
:107FEC0026F0266659D715C0D9FF16C0DAFF000E49
:047FFC00DF6E120022
:020000040020DA
:08000000FFFFFFFFFFFFFFFF00
:020000040030CA
:0E00000000051F1FFF8385FF0FC00FE00F409C
:00000001FF
