:04080000ABEF3FF02B
:107F4C00020ECA6E950ECB6E1200096A0A6A000107
:107F5C00CBEF3FF0000E046E000E036E0FD0000E40
:107F6C00066E000E056EE80E055C030E0658D8B0C2
:107F7C0003D0054A062AF7D7034A042A0150035CAA
:107F8C0002500458D8B01200EAD7949294948B9271
:107F9C003C0EBD6E0F0EBE6EA6EC3FF0CA84000EFA
:107FAC00086E0F0E076E960E075C000E0858D8B0C0
:107FBC000BD007C0BEFF000E026E640E016EB0EC5B
:107FCC003FF0074A082AEFD7000E086E960E076E90
:107FDC00100E075C000E0858D8A0E1D707C0BEFFF2
:107FEC00000E026E640E016EB0EC3FF00706D8A0D6
:047FFC000806EED7AE
:020000040020DA
:08000000FFFFFFFFFFFFFFFF00
:020000040030CA
:0E00000000051F1FFF8385FF0FC00FE00F409C
:00000001FF
